:020000040800F2
:1000000038050020010100084F1D0008A312000858
:100010004D1D0008F1030008492000080000000001
:100020000000000000000000000000002D1E00087D
:100030000D04000800000000511D0008D71E000834
:100040001B0100081B0100081B0100081B01000820
:100050001B0100081B0100081B0100081B01000810
:100060001B0100081B0100081B0100081B01000800
:100070001B0100081B0100081B0100081B010008F0
:10008000F5030008010400081B0100081B0100081B
:100090001B0100081B0100081B0100081B010008D0
:1000A0001B0100081B0100081B0100081B010008C0
:1000B0001B0100081B0100081B010008A512000815
:1000C0001B0100081B0100081B0100081B010008A0
:1000D0001B0100081B0100081B0100081B01000890
:1000E0001B0100081B0100081B010008DFF80CD0F1
:1000F00000F040F80048004725220008380500209D
:100100000648804706480047FEE7FEE7FEE7FEE7B1
:10011000FEE7FEE7FEE7FEE7FEE7FEE72B1F00082F
:10012000ED000008D2B201E000F8012B491EFBD21D
:1001300070470022F6E710B513460A4604461946F2
:10014000FFF7F0FF204610BD30B50B4601460020FA
:100150002022012409E021FA02F59D4205D303FA89
:1001600002F5491B04FA02F52844151EA2F101020A
:10017000F1DC30BD064C074D06E0E06840F00103BD
:1001800094E8070098471034AC42F6D3FFF7B2FF6B
:10019000302400085024000810B501F03BFD01F0A8
:1001A00021FD702000F0FFF801F0D4FDA82000F040
:1001B000FAF801F0CFFD002000F0F5F801F0CAFDDB
:1001C000002000F0F0F801F0C5FD01F072FE0A20F9
:1001D00000F01DF901F006FD702000F0E4F801F0D8
:1001E000B9FDBE2000F0DFF801F0B4FD082000F0FA
:1001F000DAF801F0AFFD002000F0D5F801F0AAFD1B
:1002000001F057FEBDE810400A2000F000B90000E0
:100210002DE9F041002501F0CBFD01F0D1FD0820D2
:1002200001F03DFE0024114F01F0BAFD00F009F984
:1002300000268021384600F017FB00B1012646EA6F
:100240004500C5B200224021384600F012FB00F004
:10025000F8F8641CE4B2082CE6D301F0B1FD0820E4
:1002600001F01DFE2846BDE8F0810000000C0140B1
:10027000F0B587B0002105468DF804108DF81010F8
:100280008DF80C108DF814108DF808108DF80410EE
:100290000E460C4600F06CF8502000F0B8F840F222
:1002A000E45707E0384601F0FAFD2046641CA4B28A
:1002B000642803D200F04BF80006F3D401F092FC5E
:1002C000712000F070F801F045FDFFF7A1FF8DF8F7
:1002D000040001F0ACFDFFF79BFF8DF8100001F06A
:1002E000A6FDFFF795FF8DF80C0001F0A0FDFFF7CC
:1002F0008FFF8DF8140001F09AFDFFF789FF8DF84C
:10030000080001F094FDFFF783FF8DF8040001F071
:10031000AAFD01F0CEFD9DF810009DF80C100643DB
:1003200041EA06209DF8141041EA002000092860E7
:100330009DF814009DF8081041EA00209DF8041073
:1003400041EA0020C0F31300686007B0F0BD10B5AB
:1003500001F048FC712000F026F801F0FBFCFFF7EB
:1003600057FF044601F07FFD01F0A3FD204610BDBC
:1003700010B501F037FC702000F015F801F0EAFC30
:10038000AC2000F010F801F0E5FC332000F00BF891
:1003900001F0E0FC002000F006F801F0DBFCBDE815
:1003A000104001F086BD70B505468026002401F09E
:1003B000FFFC00F037F82E4202D001F00FFD01E003
:1003C00001F020FD01F0ECFC00F02CF86806641C44
:1003D000050EE4B2082CEAD301F0EAFC082001F093
:1003E0005EFD01F0EDFCBDE87040082001F057BD56
:1003F000FEE70000014800F08BB80000AC000020D0
:10040000014800F085B8000068000020704710B572
:1004100003464FF47A7402E0204601F040FD5B1E73
:10042000FAD210BD00B5012000F01DF8012000F047
:100430001AF8012000F017F801205DF804EB00F035
:1004400012B800B5012000F00EF8012000F00BF802
:10045000012000F008F8012000F005F801205DF807
:1004600004EBAFF30080401EFDD2704772B6FEE78A
:1004700010B590F821100024022903D004218163D3
:1004800001243DE001680A6822F00E020A6001685A
:100490000A6822F001020A601A4A0168914201D1F9
:1004A000012121E0174A1432914201D110211BE0B1
:1004B000144A2832914201D1891515E0114A3C3283
:1004C000914201D189140FE00E4A5032914202D17B
:1004D0004FF4803108E00B4A6432914202D14FF46C
:1004E000801101E04FF08071064A083A5160012105
:1004F00080F82110002180F82010416B01B188475D
:10050000204610BD0800024090F82100704700000E
:100510002DE9F05FC16B0C6801680B68D0F840C032
:10052000042202FA0CF2494DDFF824A1494E4A4F49
:10053000DFF828B1DFF828E122422CD05A072AD56B
:100540000A68920603D40A6822F004020A6001686D
:10055000A94201D1042219E0514501D1402215E000
:10056000B14202D14FF4806210E0B94202D14FF49F
:1005700080420BE0594502D14FF4802206E07145DC
:1005800002D14FF4800201E04FF080622F49083918
:100590004A60C16A3BE04FF0020808FA0CF818EA1A
:1005A000040F4FF000094FF0010235D05FEA837865
:1005B00032D50B689B0605D40B6823F00A030B6049
:1005C00080F821200168A94201D1022219E0514599
:1005D00001D1202215E0B14202D14FF4007210E0A7
:1005E000B94202D14FF400520BE0594502D14FF409
:1005F000003206E0714502D14FF4001201E04FF0E5
:100600000072124908394A6080F82090816A0029F6
:100610001AD0BDE8F05F0847082505FA0CF5254219
:1006200012D01B0710D50B6823F00E030B6090F857
:100630004010C36B02FA01F15960826380F82120F7
:1006400080F82090016BE2E7BDE8F09F08000240CF
:100650001C000240300002404400024058000240AA
:100660006C00024070B5044600F008F90546601CB5
:1006700002D004480078044400F000F9401BA04276
:10068000FAD370BD000000202DE9F84FDFF8B891D3
:10069000002409F1040A0AF1040B23460F270BF189
:1006A000040EC9E00125A5402A40AA427DD1674E2B
:1006B000D1F804C0ACEB0608B44532D014DCBCF170
:1006C000030F3AD009DCBCF1000F2AD0BCF1010FB6
:1006D0001CD0BCF1020F31D11DE0BCF1110F17D0BD
:1006E000BCF1120F2AD119E0B8F5881F19D006DC29
:1006F000B8F5803F15D0B8F5801F1FD111E0B8F5CF
:10070000001F0ED0B8F5041F18D10AE0CB6815E021
:10071000CB681B1D12E0CB6808330FE0CB680C33AD
:100720000CE08B682BB1012B4FF0080303D045611F
:1007300004E0042302E0056100E00023FF2A01D861
:10074000064601E000F104064FEA840501D9A5F14F
:100750002005D6F8008007FA05FC28EA0C0803FA01
:1007600005F548EA0508C6F800804D68ED0062D539
:10077000374DAE6946F00106AE61AD6924F003065F
:1007800005F001050095334D06EB050CDCF808502B
:10079000A607360F07FA06F825EA0805DFF8B8803D
:1007A000404503D14FF0000817E044E0DFF8AC808B
:1007B000404502D14FF001080FE0DFF8A48040452A
:1007C00002D14FF0020808E0DFF89880404502D1DE
:1007D0004FF0030801E04FF0040808FA06F848EA71
:1007E0000508CCF808804D68D9F80060ED034D4647
:1007F00001D5164300E096432E604D68DAF800609C
:10080000AD03554601D5164300E096432E604D6872
:10081000DBF80060ED025D4601D5164300E096432B
:100820002E604D68DEF80060AD02754601D51643B6
:1008300000E096432E60641C0D682A46E5407FF474
:1008400031AFBDE8F88F0000000401400000111036
:10085000001002400000014000080140000C01406F
:1008600000100140001401408068084000D00120C1
:1008700070470AB1016170470904FBE701488068CD
:100880007047000000000020704770472DE9F047D6
:10089000026800215368C66A90F83E4090F83D50C7
:1008A000102C12D0402C10D0046C002C7DD0546938
:1008B000E443A6077AD4DE43B60577D4036C03B1CC
:1008C0009169BDE8F04701F0BBB8976951694FF4F1
:1008D0002A0CC9435FEAC1784FF02A4904D0664523
:1008E0002AD04E4528D010E0DE43B6050DD4C16AAB
:1008F000614501D1012103E0C16A494501D10821C7
:10090000C162BDE8F04701F005B80E0716D4DE431A
:10091000B60513D4416CC9B21161416B09B1896A42
:1009200029B9816B002907D0896A002904D00068A1
:10093000416841F400614160BDE8F0878E0706D44C
:10094000DE43B60503D4BDE8F04700F037BFFE43F1
:10095000526876074FEA02521DD4002AECDB0A06E1
:1009600008D4DA43520505D4490705D5BDE8F04758
:1009700000F0C8BE4907DFD4D9438905DCD4212D56
:1009800005D0402CD8D1BDE8F04701F009B8BDE84A
:10099000F04700F075BE002ACEDB4A060BD4DA43DE
:1009A000520508D4490708D501E00DE00EE0BDE886
:1009B000F04700F0F1BD4907BED4D9438905BBD447
:1009C000BDE8F04700F07EBD916970E7E10606D40E
:1009D000D943890503D4BDE8F04701F055B8282173
:1009E000212D27D0292D25D0650655D4DD436D0551
:1009F00052D4640752D590F83D30448D002C9BD0E2
:100A00001269446A2270426A521C4262428D521E2E
:100A10004285428D002A8FD12A2B8DD102685368DE
:100A200023F4806353602222026380F83D1000F0BB
:100A30004BF881E7250623D4DD436D0520D46407F8
:100A400020D590F83D30448D002CF2D0446A2478B3
:100A50001461426A521C4262428D521E4285428D8E
:100A6000002AE6D1292BE4D10268536823F480637D
:100A700053602122026380F83D1000F026F85BE706
:100A80006107D6D4D9438905D3D4418D0029D0D06C
:100A9000416A097811610AE06107CAD4D94389051E
:100AA000C7D4418D0029C4D01169426A1170416ACE
:100AB000491C4162418D491E41853DE770477047A1
:100AC00070477047704770477047704702488168A9
:100AD000027811448160704700000020074810B57B
:100AE000016841F010010160032000F075F80F204B
:100AF00000F006F800F024F8002010BD00200240AD
:100B000070B50D4D04464FF47A712878B1FBF0F0C2
:100B10000A490968B1FBF0F000F0ECFA48B9102C72
:100B200007D200222146501E00F036F800206C60EB
:100B300070BD012070BD0000000000200C000020EE
:100B40000C4808B5816941F001018161816901F0BA
:100B500001010091C16941F08051C161C06900F09B
:100B6000805000900448416821F0E06141F000713C
:100B7000416008BD0010024000000140002809DB70
:100B800000F01F02012191404009800000F1E020A7
:100B9000C0F8001170470000F0B40E4B1B680C4603
:100BA000C3F30223C3F10705042D00D90425191D41
:100BB000072901D2002300E0DB1E012606FA05F119
:100BC000491E214099409E40761E16403143F0BC9C
:100BD00001F04CBA0CED00E0064900F0070208688D
:100BE0004FF6FF03184040EA0220034A1043086012
:100BF000704700000CED00E00000FA052DE9F04719
:100C00000F46050061D0434E306800F00700B8423F
:100C100009D2306820F0070038433060306800F0B7
:100C20000700B84251D128683B4C810712D54007D4
:100C300003D5606840F4E06060602878000703D561
:100C4000606840F4605060606068A96820F0F0005F
:100C5000084360602878C00728D06868012810D051
:100C60002168022810D0890700292EDA616821F056
:100C7000030101436160FFF701FE804641F28839BC
:100C80000DE021688903EFE78901EDE7FFF7F6FD45
:100C9000A0EB0801494502D90320BDE8F087606850
:100CA000696800F00C00B0EB810FEFD1306800F004
:100CB0000700B8420BD9306820F007003843306095
:100CC000306800F00700B84201D00120E5E728783D
:100CD000400705D56068E96820F4E060084360607B
:100CE0002878000706D56068296920F4605040EA3A
:100CF000C100606000F038F86168084AC1F3031170
:100D0000515CC8400649086006480068FFF7F8FED5
:100D10000020C2E700200240001002401824000812
:100D20000C000020040000200448054900684968C0
:100D3000044AC1F30221515CC84070470C000020F6
:100D4000001002402824000804480549006849684A
:100D5000044AC1F3C221515CC84070470C00002016
:100D6000001002402824000812A185B00FC98DE8A8
:100D70000F0014A0144A006804905168134801F051
:100D80000C03042B10D0082B0ED1C1F38343C903ED
:100D90001DF803000AD5516804AAC1F34041515C13
:100DA0000A4A5043B0FBF1F005B070470849484388
:100DB000FAE7000002030405060708090A0B0C0DF8
:100DC0000E0F1010010200000010024000127A0005
:100DD00000093D002DE9F84F040070D02078C04D87
:100DE000C00749D06868C0F38100012807D068684F
:100DF000C0F38100022809D16868C00306D52868BD
:100E0000800339D560680028E7D035E06068B0F528
:100E1000803F0BD010B1B0F5A02F11D0286820F47E
:100E200080302860286820F4802002E0286840F4A0
:100E300080302860606890B1FFF720FD06460AE028
:100E4000286840F480202860F0E700BFFFF716FD17
:100E5000801B642873D828688003F7D50CE0FFF75F
:100E60000DFD064605E000BFFFF708FD801B642866
:100E7000F0D828688003F7D420789A4E80074FF086
:100E800001094FF0000839D5686810F00C0F07D041
:100E90006868C0F38100022809D16868C00306D4DD
:100EA0002868800714D52069012808D110E020693E
:100EB000B0B1C6F80090FFF7E1FC074605E00AE193
:100EC000FFF7DCFCC01B0228C4D828688007F7D5D0
:100ED0002868616920F0F80040EAC10028600DE050
:100EE000C6F80080FFF7CAFC074604E0FFF7C6FC1F
:100EF000C01B022823D828688007F7D42078000771
:100F00002CD57948A169D9B1C0F80090FFF7B6FC9B
:100F1000074604E0FFF7B2FCC01B02280FD8686A3E
:100F20008007F7D571484FF4FA510068B0FBF1F033
:100F3000009000BF0098411E0091FAD20EE080E0C0
:100F4000C0F80080FFF79AFC074604E0FFF796FC24
:100F5000C01B022875D8686A8007F7D4207840073C
:100F600060D5E8690027C00008D4E86940F08050E7
:100F7000E861E869012700F0805000905C48016852
:100F8000C90513D40168834641F480710160FFF7FD
:100F900075FC824606E000BFFFF770FCA0EB0A007C
:100FA00064284ED8DBF80000C005F5D5E0680128BC
:100FB0000AD008B1052813D0286A20F00100286261
:100FC000286A20F0040002E0286A40F0010028624C
:100FD000E06841F2883B98B1FFF750FC82460BE095
:100FE000286A40F004002862EEE700BFFFF746FCE5
:100FF000A0EB0A0159455AD8286A8007F6D50CE0BB
:10100000FFF73CFC824605E0FFF738FCA0EB0A0145
:1010100059454CD8286A8007F6D41FB1E86920F0FA
:101020008050E861E06988B36968C1F381010229F1
:1010300044D00228C6F8608004D0FFF71FFC0446A5
:1010400038E034E0FFF71AFC074604E0FFF716FC2F
:10105000C01B02282BD828688001F7D4206AB0F57D
:10106000803F05D16868A16820F4003008436860BB
:10107000D4E908010843696821F4741108436860E1
:10108000C6F86090FFF7FAFB044606E025E000BFD3
:10109000FFF7F4FB001B022809D828688001F7D568
:1010A0001BE000BFFFF7EAFB001B022802D9032068
:1010B000BDE8F88F28688001F4D40EE00128F7D04D
:1010C0006868226A00F48031914204D1616A00F4B8
:1010D0007010884201D00120EAE70020E8E7000014
:1010E0000010024000004242800442420C000020F6
:1010F0000070004010B5401EB0F1807F01D3012088
:1011000010BD4FF0E02460610F21601700F0AEFFCA
:101110000020A06107202061002010BD70B50400F0
:1011200004D094F83D00002510B106E0012070BD08
:1011300084F83C50204600F023F8242084F83D0039
:101140002068C16821F40051C160204600F0EEFE25
:101150002068016921F4904101612068416921F012
:101160002A0141612068C16841F40051C1602564D1
:10117000202084F83D0084F83E00002070BD00006F
:1011800030B585B000240094019402940394006863
:101190001449884224D11448816941F48041816115
:1011A000816901F480410491816941F00401816108
:1011B00080690E4D00F0040004904FF40070009020
:1011C000022001900320039069462846FFF75CFA4D
:1011D0002815CDE90004694628460294FFF754FA21
:1011E00005B030BD00380140001002400008014049
:1011F0002DE9F843044690F83D001F4616460D467B
:1012000020284CD1C5B1BEB194F83C00012846D08D
:10121000012084F83C004FF00008C4F840802120F1
:1012200084F83D00FFF72AFBA6848146E684A06887
:10123000B0F5805F03D004E00120BDE8F8832069A9
:1012400028B12E465FF0000584F83C800EE00026B1
:10125000FAE78021204600F0C5FEA0B9AEB116F82D
:10126000010B21684860E08C401EE084E08C4B4616
:101270004FF0000200970028EBD14FF040012046CC
:1012800000F0B0FE30B10320D7E735F8020BC0F311
:101290000800E6E7202084F83D000020CDE702208A
:1012A000CBE7FEE70148FFF7F1BA00001400002089
:1012B00038B5406A002190F83D202B4B46F2A81427
:1012C0001B68B3FBF4F3C3EBC30303EB830300938B
:1012D0003BB15B1E009303681B689B0505D5009B13
:1012E000F6E7036C43F020030364436B03B1996298
:1012F000836B03B1996203681C6824F480641C60EA
:101300004185436B03B15963836B03B15963036830
:101310001C6824F001041C6090F83D402023602CE0
:101320000BD0282434EA02020FD080F83D3080F838
:101330003E1000BFFFF7C2FB38BD80F83D3080F89B
:101340003E100164FFF7A0FA38BD0268136843F04D
:10135000010313600268136843F480631360016340
:1013600080F83D40E6E700000C00002070B5044620
:1013700090F83D0094F83E10102901D0402906D184
:10138000222804D121680A6822F400620A60282118
:1013900031EA00024FF000054FF0200626D0216808
:1013A0004968090505D4602803D084F83D6084F8B5
:1013B0003E50256320684168090537D5416821F40E
:1013C00000614160606B3D4990F82120012A11D0F5
:1013D0004163606BFFF74CF838B32068016821F077
:1013E0000101016084F83D60606B1CE0256384F8B6
:1013F0003D10DFE7A06B4163A06BFFF739F8A0B1A8
:1014000020684169C943490605D40069616A0870CA
:10141000606A401C60622068016821F0010101607F
:1014200084F83D60A06B416B884710E094F83D1054
:10143000602910D04169C943490605D40069616A31
:101440000870606A401C60622046FFF737FB206C22
:10145000C1071CD115E084F83D6025644169C9438A
:10146000490605D40069616A0870606A401C6062C0
:101470002068016821F0010101602046FFF704FAAD
:10148000E5E7810703D4410701D4000704D52068AC
:10149000416821F4E061416094F83D00216C490706
:1014A0000BD5282809D10648E062256384F83D6001
:1014B00084F83E502046FFF702FB70BDB1120008D1
:1014C0000000FFFF10B5C26A438D0168042B06D0EF
:1014D000438D032B08D0438D022B1DD012E04A68A8
:1014E00022F480624A600CE04B6823F480634B6016
:1014F000042A06D0022A04D001680A6822F4806215
:101500000A6001680969426A1170416A491C4162B6
:10151000418D491E418510BD012A30D0102A2ED0A0
:10152000042A30D0022A2ED00A6842F400720A60DF
:1015300001680969426A1170416A491C4162428D21
:10154000521E4285026812690A70416A491C416252
:10155000418D491E418501684A6822F440724A6003
:10156000202180F83D1090F83E200021402A80F88C
:101570003E100CD012210163FFF7A2FA10BD0A68D9
:1015800022F48062D3E70A6842F48062CFE7016305
:10159000FFF798FA10BD000038B590F83D102229E9
:1015A00014D1418D032912D901680969426A117069
:1015B000416A491C4162418D491E4185418D032983
:1015C00004D10068416821F48061416038BDC26A7D
:1015D000022AFBD0012901D00029F7D1274946F280
:1015E000A81300220968B1FBF3F101EB810100911E
:1015F00001682023009C641E009422D00C68A4057E
:10160000F8D40C6824F480640C6001684C6824F4FD
:10161000E0644C6001680969446A2170416A491CB0
:101620004162418D491E418580F83D3090F83E1061
:1016300080F83E2040291DD012210163FFF740FAB7
:1016400038BD046C44F0200404644C6824F4E06465
:101650004C6001680969446A2170416A491C416211
:10166000418D491E418580F83D3080F83E20FFF7CE
:1016700025FA38BD0263FFF725FA38BD0C000020BB
:1016800010B5C26A90F83D1021290BD1418D51B19E
:10169000416A026809781161416A491C4162418DC1
:1016A000491E418510BD20230021082A13D0202A7D
:1016B00011D012F5803F0ED00268546824F4E06423
:1016C00054601122026380F83E1080F83D3000BF64
:1016D000FFF7F7F910BD0268546824F4E064546021
:1016E0000268146844F400741460016380F83D30AB
:1016F00090F83E2080F83E10402AE9D1FFF7E3F948
:1017000010BD000010B590F83D1090F83E30C26A50
:10171000048DB4B1212903D0402B11D122290FD13E
:10172000418DE1B390F83E10402942D0416A0268F1
:1017300009781161416A491C4162418D491E418508
:1017400010BD2129E8D120230021082A13D0202A06
:1017500011D012F5803F0ED00268546824F4E06482
:1017600054601122026380F83E1080F83D3000BFC3
:10177000FFF7A7F910BD0268546824F4E0645460D0
:101780000268146844F400741460016380F83D300A
:1017900090F83E2080F83E10402AE9D100E002E0B7
:1017A000FFF791F910BD0068416821F48061416044
:1017B00010BDBDE8104000F0F3B8000078B590F817
:1017C0003E50C26A046B90F83D6000230168222EEF
:1017D00073D1066D0EB9402D6FD0056D1DB9056929
:1017E000B5F5404F1BD0458D95B3468D484D012E24
:1017F00020D0448D022C4DD00C6844F480640C60E1
:1018000001684C68240579D5AA4273D0012A71D0A9
:10181000082A6FD0102A6DD0202A6BD06EE04A695A
:101820008A6900920A6842F480720A60016D491C5C
:10183000016578BDAA4214D10A6822F480620A6068
:1018400001684A68120504D50A6822F4806217E02C
:10185000FFE74A698A6900920A6842F400720A60E6
:1018600050E0082A10D0202A0ED0122C0AD0042AC8
:1018700003D0022A01D0102AE6D10A6842F480621D
:101880000A603BE0012ADFD00A6822F480620A6025
:101890000168DEE7042A11D0022A0FD0102A0DD0E9
:1018A0000C6844F400640C6001684C698C69009415
:1018B0000C6824F480640C6008E025E00C6844F4B3
:1018C00080640C6001684C698969009101684C680A
:1018D000240517D5AA4207D0012A05D0082A03D02B
:1018E000102A01D0202A0DD14A6842F480524A6061
:1018F00008E0FFE74A6842F480524A6001684A699A
:1019000089690091036578BD48698869009078BD50
:101910000000FFFF90F83E10402910D00169B1F59A
:10192000804F19D0016DA9B3016D012910D1416C0F
:101930005FF0F10201F4407142EAD11106E0016D5D
:101940000029416C05D0C9B241F001010068016174
:10195000704701F0FE01F9E790F83D102129416C34
:1019600009D0C9B241F0010102681161416B29B18E
:10197000896A49B902E001F0FE01F5E7816B0029AF
:10198000E6D0896A0029E3D00068416841F400612B
:1019900041607047FFE7416CF02201F44071CBE7F2
:1019A00010B590F83D10026D22B3026D012A2FD0C0
:1019B000026D022A1DD122292FD0428D0AB1212980
:1019C00033D0428D002A14D1212912D101684A68EE
:1019D00022F4E0624A6001680A6842F400720A6018
:1019E00000210163202280F83D2080F83E10FFF79F
:1019F0006AF810BDC16C0129816C02D0C1F30721C6
:101A000008E00268C9B21161016D891C016510BD51
:101A1000816CC9B20268116104E001680A6842F48D
:101A200080720A60016D491CF0E7416A026809781A
:101A30001161416A491C4162418D491E418510BDB9
:101A400038B50C4690F83D200021282595430268C2
:101A50000B4605D051699169009180F83C3038BD42
:101A6000556825F480655560E243540700D501218F
:101A7000120601D5828900E0028B80F83C3092B2D8
:101A8000FEF703FF38BD0000F8B590F83D6004464E
:101A90000068416821F4E0614160206800254169E7
:101AA0000091016841F0010101602068016821F4A2
:101AB0008061016020684168090520D5474F222ECA
:101AC00048D02A2E46D0616B096849686185618DCE
:101AD00019B1216C41F004012164416821F40061D5
:101AE0004160606BFEF710FD012808D0606B476312
:101AF000606BFEF7BDFC10B1606B416B8847608D79
:101B000008B320684169C943490708D40069616A7C
:101B10000870606A401C6062608D401E60852068AD
:101B20004169C943490608D40069616A0870606A5E
:101B3000401C6062608D401E6085608D18B1206C15
:101B400040F004002064206C00B32046BDE8F8405B
:101B5000FFF70CBCA16B096849686185618D19B1FB
:101B6000216C41F004012164416821F4006141606D
:101B7000A06BFEF7C9FC0128C1D0A06B4763A06B26
:101B8000FEF776FC0028BAD0A06BB6E72A2E06D165
:101B90002563282084F83D002046FEF795FF94F841
:101BA0003D10202028290DD0216B222901D0222E82
:101BB00007D1256384F83D0084F83E502046FEF7A7
:101BC00083FFF8BD0649E162256384F83D0084F88F
:101BD0003E502046FEF773FFF8BD0000B11200082A
:101BE0000000FFFF10B500F0F9F8082000F057F9E9
:101BF00000F0D6F8082000F052F900F003F90820B0
:101C000000F04DF900F0D4F8BDE81040082000F0D5
:101C100046B900007FB501248020CDE900040D4EB7
:101C20000325694603953046FEF72EFD01228021EB
:101C30003046FEF71EFE4020CDE9000469460395BC
:101C40003046FEF721FD012280213046FEF711FECD
:101C50007FBD0000000C01400D4808B5416941F00E
:101C6000010141614069002200F00100009011462D
:101C70001020FEF791FF1020FEF780FF0022114692
:101C80001120FEF789FFBDE808401120FEF776BF5E
:101C90000010024070B586B000241C4800940194E6
:101CA00002940394816941F010018161816901F01E
:101CB00010010491816941F020018161816901F085
:101CC00020010491816941F004018161816901F081
:101CD00004010491816941F00801816180690C4E21
:101CE00000F008004FF400550490002229463046C9
:101CF000FEF7BFFD01200095CDE90104022003900D
:101D000069463046FEF7C0FC06B070BD00100240C8
:101D1000001001400C4810B50A4901604FF4E13150
:101D20004160002181600C22C160C0E90412816120
:101D3000C161FFF7F3F9002803D0BDE81040FEF7BA
:101D400095BB10BD00380140F0000020FEE7FEE723
:101D50007047000070B5002400F02AF800F030F859
:101D6000082000F09CF800F01BF8082000F097F81D
:101D70000A4D01E0641CA4B280212846FEF774FDE0
:101D800008B1642CF6D3642C06D000F011F80820BA
:101D900000F085F8012070BD002070BD000C0140EE
:101DA000012240210148FEF764BD0000000C014003
:101DB000002240210148FEF75CBD0000000C0140FC
:101DC0001FB50020019080200090032003906946F9
:101DD0000148FEF759FC1FBD000C01401FB5012052
:101DE0000190802000900320054C03906946204616
:101DF000FEF74AFC012280212046FEF73AFD1FBD76
:101E0000000C01401FB501200190802000900320AC
:101E1000054C039069462046FEF736FC00228021DF
:101E20002046FEF726FD1FBD000C0140704710B58F
:101E3000FFF7BEFF082000F032F8FFF7E3FF0820AD
:101E400000F02DF8FFF7ACFF082000F028F8FFF7AE
:101E5000AFFF082000F023F8FFF7B2FFBDE8104005
:101E6000082000F01CB810B5FFF7A2FF082000F012
:101E700016F8FFF7B3FF082000F011F8FFF790FF06
:101E8000082000F00CF8FFF793FF082000F007F897
:101E9000FFF7B8FFBDE810400820AFF3008000B5A1
:101EA000801E020004D00120FEF7DDFA521EFAD196
:101EB00000BD10B5FFF7A6FF0820FFF7F0FFFFF702
:101EC0006FFF0820FFF7EBFFFFF788FFBDE810402A
:101ED0000820FFF7E4BFFEF7F9BD10B590B0282148
:101EE0006846FEF726F914210AA8FEF722F9022017
:101EF000009001200490102000240590079468466B
:101F0000FEF768FF08B172B6FEE70F20CDE90A04BC
:101F10000C940D9400210AA80E94FEF76FFE002881
:101F200001D072B6FEE710B010BD704770B5044620
:101F300000680169E26821F440511143016121699F
:101F4000A0680843616908432168CA6841F20C63CC
:101F50009A430243CA6020684169A26921F4407132
:101F6000114341611E492068884202D1FEF7ECFE10
:101F700001E0FEF7D9FE00EBC00101EB0012606842
:101F800064218000B2FBF0F3B3FBF1F36FF01806AD
:101F90007343B2FBF0F5B2FBF0F605EB8305322399
:101FA00003EB0515B5FBF1F5B6FBF1F605F0F00511
:101FB00005EB0615B2FBF0F6B2FBF0F0B0FBF1F06A
:101FC0006FF01802504306EB800003EB0010B0FBEB
:101FD000F1F0216800F00F002844886070BD000017
:101FE000003801402DE9F041984617460E46044658
:101FF000069D1DE0681C1BD02DB1FEF73FFCA0EB39
:102000000800A84214D92068C16821F4D071C160C9
:102010002068416921F001014161202084F83D00E0
:1020200084F83E00002084F83C000320BDE8F081E5
:102030002068006836EA000004D00020B842D9D0F9
:102040000020F3E70120F9E7FEE700000FB4054B9D
:1020500010B503A9044A029800F028F810BC5DF8F6
:1020600014FB000001220008100000200907090EDF
:10207000002804DB00F1E02080F80014704700F035
:102080000F0000F1E02080F8141D704702E008C83E
:10209000121F08C1002AFAD170477047002001E0E2
:1020A00001C1121F002AFBD1704700002DE9FF4F2C
:1020B00089B09B460446002506E025280BD05A46E9
:1020C0000B999047641C6D1C20780028F5D10DB049
:1020D0002846BDE8F08F0027B8460122474900E0B6
:1020E000074314F8013F203B02FA03F00842F7D1FE
:1020F00020782E2819D114F8010F47F004072A2858
:102100000ED06FF02F022078A0F1300109290CD8F1
:1021100008EB880102EB410100EB0108641CF2E7C7
:102120000A98641C50F8048B0A9020780028CED0BE
:10213000642808D0692806D075281ED05A460B9905
:1021400090476D1C58E00A994FF00A0901C90A919D
:10215000002802DA40422D2102E0390504D52B2166
:102160008DF82010012103E0F90704D02021F7E7C2
:102170008A4608AE0DE00021FAE70A994FF00A09F5
:1021800001C90A91F7E74946FDF7DEFF303106F84D
:10219000011D0028F7D1ADEB060000F120097807FA
:1021A00001D44FF00108C84502DDA8EB090000E0AA
:1021B00000208046002706E008A85A46C05D0B991B
:1021C00090476D1C7F1C5745F6DB04E030205A46D3
:1021D0000B9990476D1CB8F10001A8F10108F5DCDE
:1021E00005E016F8010B5A460B9990476D1CB9F1A2
:1021F0000001A9F10109F4DC641C65E7092801006C
:1022000013B54FF6FF73012269460548FEF7F0FF4C
:10221000034800680168C9434906FBD400981CBD07
:10222000F000002086B0002003904FF4FA74049070
:102230002046FEF7ECF8FEF751FCFFF74EFEFFF7E5
:1022400029FDFFF709FDFFF765FDFDF7A5FF204616
:10225000FEF7DDF86742642566000A2403A8FEF74E
:1022600007F803984FF47A714843000D05900498DD
:102270004900484307EB1050009058A0FFF7E6FED6
:102280006420FEF7EFF958A0FFF7E0FE6420FEF7A8
:10229000E9F955A0FFF7DAFE6420FEF7E3F952A052
:1022A000FFF7D4FE6420FEF7DDF94FA0FFF7CEFE66
:1022B0006420FEF7D7F94CA0FFF7C8FE6420FEF7B4
:1022C000D1F949A0FFF7C2FE6420FEF7CBF946A082
:1022D000FFF7BCFE6420FEF7C5F943A0FFF7B6FE8A
:1022E0006420FEF7BFF940A0FFF7B0FE6420FEF7C0
:1022F000B9F93DA0FFF7AAFE3CA0FFF7A7FE3046C4
:10230000FEF7B0F9009890FBF4F104FB110390FB89
:10231000F4F090FBF4F104FB1102009890FBF5F14E
:1023200033A0FFF793FE059890FBF4F104FB110333
:1023300090FBF4F090FBF4F104FB1102059890FB84
:10234000F5F12FA0FFF782FE28A0FFF77FFE30A057
:10235000FFF77CFE6420FEF785F923A0FFF776FEE9
:102360006420FEF77FF920A0FFF770FE6420FEF7DF
:1023700079F91DA0FFF76AFE6420FEF773F91AA031
:10238000FFF764FE6420FEF76DF917A0FFF75EFE0D
:102390006420FEF767F914A0FFF758FE6420FEF7EB
:1023A00061F911A0FFF752FE6420FEF75BF90EA061
:1023B000FFF74CFE6420FEF755F90BA0FFF746FE31
:1023C0006420FEF74FF908A0FFF740FE07A0FFF7D3
:1023D0003DFE3046FEF746F940E70000D5FDD4DA71
:1023E000BCECB2E2000000002E0000000D0A00006C
:1023F000CEC2B6C83A256425642E256400000000CC
:10240000CAAAB6C83A256425642E256400000000D7
:10241000B5C8B4FD0000000000000000000000008E
:10242000010203040607080900000000010203047A
:102430005024000800000020140000008C20000838
:102440006424000814000020240500009C200008DB
:102450000100000010000000000000000024F40053
:042460000000000078
:04000005080000ED02
:00000001FF
